:100000000A128A11D72F00308A000408840A820756
:10001000003445344E345434453452342034503452
:1000200041345334533457344F345234443400340D
:10003000533459345334543445344D3420344C34CF
:100040004F3443344B344534443400345734523401
:100050004F344E34473420345034413453345334C5
:10006000003441344334433445345334533420341E
:060070004F344B34003454
:10007800031083120313500D510DD7005708031DA9
:100088004628472850280030D1000030D0000030E2
:10009800CF000030CE00B1284E08D2004F08D30060
:1000A8005008D4005108D5001F300310D50CD40CCB
:1000B800D30CD20CFF3E031D59285208D600D01786
:1000C800FF30CE05FF30CF05FF30D0050030D10519
:1000D8009630D702D71F712872288A285708803A85
:1000E800973E0318782879287A2847280130031082
:1000F800D10CD00CCF0CCE0CFF3E031D7B28013059
:10010800D707031D882889287A28A1282030570274
:10011800031C8F2890289C2847280130D200031000
:10012800CE0DCF0DD00DD10DD20B93280130D702B3
:100138005708031DA028A128912856080319A528A7
:10014800A628B128CE09CF09D009D109CE0A0319AA
:10015800CF0A0319D00A0319D10A0800F800780851
:100168000319B728B828CC28F31FBB28BC28CC28EB
:100178007009FA007109FB007209FC007309FD009F
:10018800FA0A0319FB0A0319FC0A0319FD0AD42801
:100198007308FD007208FC007108FB007008FA0083
:1001A8007308720471047004031DDB28DC28E52839
:1001B8000030F3000030F2000030F1000030F000B1
:1001C80065299630F900F3280130F907013003104A
:1001D800FD0CFC0CFB0CFA0CFF3E031DEB28FE305B
:1001E8007D05031DF828F928E82813290130F907A7
:1001F8000130FA07003003180130FB0700300318FC
:100208000130FC07003003180130FD0701300310EE
:10021800FD0CFC0CFB0CFA0CFF3E031D0B29FF30F8
:100228007D05031D18291929FA2825290130F90205
:100238000130F4000310FA0DFB0DFC0DFD0DF40B5D
:100248001E29FC1B282929292F2902307902031885
:100258002E292F291A297918322933293B29FF30C9
:10026800FA05FF30FB057F30FC05FF30FD05031064
:10027800F90C7908F400F501F601F70118300310BC
:10028800F40DF50DF60DF70DFF3E031D4329740817
:10029800FA047508FB047608FC047708FD0478085E
:1002A8000319572958295D29F31F5B295C295D2902
:1002B800FD177D08F3007C08F2007B08F1007A083E
:1002C800F000080083120313081088140815881515
:1002D800081A6F2970297B290D30F100FB30F000D6
:1002E800F00B7429F10B7429792931302D2A881AD9
:1002F8007E297F298A290D30F100FB30F000F00BB0
:100308008329F10B8329882932302D2A081B8D294E
:100318008E2999290D30F100FB30F000F00B92295D
:10032800F10B9229972933302D2A081488100815C3
:100338008815081AA029A129AC290D30F100FB3035
:10034800F000F00BA529F10BA529AA2934302D2A94
:10035800881AAF29B029BB290D30F100FB30F00015
:10036800F00BB429F10BB429B92935302D2A081B13
:10037800BE29BF29CA290D30F100FB30F000F00B6F
:10038800C329F10BC329C82936302D2A081488142B
:1003980008118815081AD129D229DD290D30F10054
:1003A800FB30F000F00BD629F10BD629DB293730CA
:1003B8002D2A881AE029E129EC290D30F100FB30BB
:1003C800F000F00BE529F10BE529EA2938302D2A50
:1003D800081BEF29F029FB290D30F100FB30F00054
:1003E800F00BF429F10BF429F92939302D2A0814D6
:1003F800881408158811081A022A032A0E2A0D30B3
:10040800F100FB30F000F00B072AF10B072A0C2A49
:100418002A302D2A881A112A122A1D2A0D30F10095
:10042800FB30F000F00B162AF10B162A1B2A30308D
:100438002D2A081B202A212A2C2A0D30F100FB30F6
:10044800F000F00B252AF10B252A2A2A23302D2A21
:10045800003008008316031386010810881008115D
:1004680088110816881608170710871107128712AF
:1004780083120313860107108711071287120A12C5
:100488008A1502270A128A110A128A15B1260A1237
:100498008A11003083120313D800D9000A128A1572
:1004A800AC270A128A1180300A128A1552270A12BA
:1004B8008A110130F5000A128A15E6260A128A11F5
:1004C800C0300A128A1552270A128A110A128A1192
:1004D80066210A128A1183120313DF005F080319C9
:1004E800762A772A6A2A213083120313DD007530B1
:1004F800DC00DC0B7D2ADD0B7D2A822A303083125A
:1005080003135F02031C892A8A2AB82A3A305F0239
:1005180003188F2A902AB82A043061020318952AF2
:10052800962AB82A6108623E84005F088313800017
:100538002A300A128A157F270A128A118312031396
:100548008715023083120313DE004530DD00A93021
:10055800DC00DC0BAD2ADD0BAD2ADE0BAD2A8312E5
:10056800031387110130E10723305F06031DBD2AFD
:10057800BE2A8D2BE60101300A128A1552270A126B
:100588008A116230F0006730F1000A128A152A27B2
:100598000A128A1170087104031DD32AD42A112B58
:1005A80083120313E00107162930F5000A128A1591
:1005B800E6260A128A115A3083120313D800003033
:1005C800D9000A128A15AC270A128A11831203135A
:1005D8000714083083120313DE009D30DD00053058
:1005E800DC00DC0BF52ADD0BF52ADE0BF52A83127D
:1005F800031307101A3083120313DE005E30DD0088
:100608006D30DC00DC0B062BDD0B062BDE0B062B1E
:100618000D2B8312031307125B2B01308312031374
:10062800E00787161E30F5000A128A15E6260A1218
:100638008A11831203130714083083120313DE0090
:100648009D30DD000530DC00DC0B282BDD0B282B72
:10065800DE0B282B8312031307101A30831203139F
:10066800DE005E30DD006D30DC00DC0B392BDD0B8D
:10067800392BDE0B392B402B8312031387120330DF
:100688006002031C482B492B5B2B01300A128A1588
:1006980052270A128A111030F5000A128A15E62626
:1006A8000A128A1183120313871607145A2B08306B
:1006B80083120313DE009D30DD000530DC00DC0B07
:1006C800632BDD0B632BDE0B632B01300A128A15BB
:1006D80052270A128A110130F5000A128A15E626F5
:1006E8000A128A11C0300A128A1552270A128A1170
:1006F80083120313E1016230F0000030F100F200D0
:100708000530F3000030F4000A128A15CD260A12CB
:100718008A112A30831203135F06031D942B952B2D
:100728006A2A01300A128A1552270A128A110130E0
:10073800F5000A128A15E6260A128A11C0300A1232
:100748008A1552270A128A1183120313E1016230B3
:10075800F0000030F100F2000530F3000030F40042
:100768000A128A15CD260A128A116A2A0A128A11D1
:100778000028831203132708B1008030B105270829
:10078800A8002807B800A61FCA2BCB2BCC2B3814DF
:1007980038080319D02BD12BE12B380A031DD52B90
:1007A800D62BDE2B0030A7000030A6000030A500B5
:1007B8000030A400A617A701E92B0030A7000030DD
:1007C800A6000030A5000030A40023088039B10637
:1007D8002308A8002807B900A21FF32BF42BF52B38
:1007E800391439080319F92BFA2B0A2C390A031D75
:1007F800FE2BFF2B072C0030A3000030A200003096
:10080800A1000030A000A217A301122C0030A30001
:100818000030A2000030A1000030A000230822040C
:1008280021042004031D192C1A2C312C0030A70098
:100838000030A6000030A5000030A4008030A604D7
:100848007F30A7043108A7042708A3002608A200C0
:100858002508A1002408A000862D3808031D352C82
:10086800362C3F2C0030A3000030A2000030A1003D
:100878000030A000862D3808A800A9012908AB007F
:1008880039082802AA00031CAB032A087F3EB200DD
:100898002B080318013E003EB3002708B0002608C5
:1008A800AF002508AE002408AD000030A7000030D6
:1008B800A6000030A5000030A4000030B7000030CA
:1008C800B6000030B5000030B400B901B32C3908C7
:1008D80003196F2C702C902C0130A8000310AD0D5B
:1008E800AE0DAF0DB00DA80B722C0130A80003108F
:1008F800A40DA50DA60DA70DA80B7B2CB71F852C45
:10090800862C872C24140130A8000310B40DB50DD3
:10091800B60DB70DA80B892C23083002031D9E2C99
:1009280022082F02031D9E2C21082E02031D9E2C37
:1009380020082D02031CA12CA22CB12C371720084B
:10094800AD022108031C210FAE022208031C220F4E
:10095800AF022308031C230FB0020130B9071A3075
:100968003902031CB82CB92C6B2C30082F042E0428
:100978002D040319C02CC12CE02C3414E02C0130B8
:10098800A8000310A40DA50DA60DA70DA80BC52C36
:10099800B71FCF2CD02CD12C24140130A800031061
:1009A800B40DB50DB60DB70DA80BD32CFF30B2079B
:1009B8000318B30AFF30B307A61FE32CE42CC32C9B
:1009C800B901B71FE82CE92C052DFF303405A80024
:1009D800FF303505A900FF303605AA007F303705FE
:1009E800AB002B082A04290428040319FC2CFD2C2D
:1009F800002D0130B900052D241C032D042D052DD3
:100A0800FD2C39080319092D0A2D3B2D0130A407A7
:100A1800003003180130A507003003180130A6077D
:100A2800003003180130A707271C1B2D1C2D3B2D58
:100A38002408A8002508A9002608AA002708AB0052
:100A48000130AC002B0DAB0CAA0CA90CA80CAC0BFC
:100A5800262D2B08A7002A08A6002908A500280883
:100A6800A4000130B2070318B30A0030B3073308F3
:100A7800803AFF0080307F02031D442DFF30320290
:100A8800031C472D482D562DFF3083120313B20047
:100A98000030B3000030A7000030A6000030A500E9
:100AA8000030A400831203133308803AFF0080301B
:100AB8007F02031D612D013032020318642D652D5C
:100AC800722D83120313B201B3010030A700003066
:100AD800A6000030A5000030A400B1018312031362
:100AE8003208B800381C792D7A2D7C2DA6177E2D5A
:100AF8007F30A6053808A8000310280CA700310885
:100B0800A704282C0800831203133D08CA0080306C
:100B1800CA053D08C2004207CC00BC1F942D952D84
:100B2800962D4C144C0803199A2D9B2DAB2D4C0A6D
:100B3800031D9F2DA02DA82D0030BD000030BC0046
:100B48000030BB000030BA00BC17BD01B32D003027
:100B5800BD000030BC000030BB000030BA004108C6
:100B6800CB008030CB054B084A060319BC2DBD2DA0
:100B7800BE2D4A174108C2004207CB00C01FC52D31
:100B8800C62DC72D4B144B080319CB2DCC2DDC2DAE
:100B98004B0A031DD02DD12DD92D0030C1000030B6
:100BA800C0000030BF000030BE00C017C101E42DF6
:100BB8000030C1000030C0000030BF000030BE006F
:100BC8004C084B020318E92DEA2D0E2E4A1FED2D75
:100BD800EE2DF02D8030CA064C08CD004B08CC0015
:100BE8004D08CB003A08CD003E08BA004D08BE00BB
:100BF8003B08CD003F08BB004D08BF003C08CD00B6
:100C08004008BC004D08C0003D08CD004108BD00AB
:100C18004D08C100CD014B08C200C3014308C500FF
:100C28004C084202C400031CC5034508803AFF0073
:100C380080307F02031D222E1A304402031C252E09
:100C4800262E5B2E831203133D083C043B043A0412
:100C5800031D2F2E312E0130322E0030CD000030F2
:100C6800BD000030BC000030BB000030BA004B08AB
:100C7800CC00632E4D1C412E422E492E4D08C20039
:100C88000310420C0138CD004B2E0310CD0C3A1C3A
:100C98004E2E4F2E502ECD170130C2003D0DBD0CEB
:100CA800BC0CBB0CBA0CC20B522E0130CC07831201
:100CB80003134B084C02031C622E632E3E2E4A1B64
:100CC800662E672EAE2E4C08031D6B2E6C2E752ECD
:100CD8000030BD000030BC000030BB000030BA005E
:100CE800D62F3E08BA073F0803110318013E03191F
:100CF8007E2EBB07400803110318013E0319852EF9
:100D0800BC07410803110318013E03198C2EBD07C7
:100D18003D1C8F2E902E622F4D1C932E942E9B2EB1
:100D28004D08C2000310420C0138CD009D2E03105F
:100D3800CD0C3A1CA02EA12EA22ECD170130C20038
:100D48003D0DBD0CBC0CBB0CBA0CC20BA42E013063
:100D5800CC07622F3D08803AFF004108803A7F02A5
:100D6800031DC02E40083C02031DC02E3F083B0255
:100D7800031DC02E3E083A020318C32EC42E1B2F93
:100D8800FF30C200FF30C300FF30C400FF30C50091
:100D98003E08C6003F08C7004008C8004108C9000F
:100DA8003A08C6023B08031C3B0FDB2EDC2EC702A9
:100DB8003C08031C3C0FE12EE22EC8023D08031C30
:100DC8003D0FE72EE82EC9024608C2074708031858
:100DD800470FEF2EF02EC30748080318480FF52ECB
:100DE800F62EC40749080318490AC5074508BD0077
:100DF8004408BC004308BB004208BA008030CA0659
:100E08004D03FF3ACD004D08031D0B2F0C2F292F42
:100E18000130BA07003003180130BB07003003184F
:100E28000130BC07003003180130BD07292F3E08E8
:100E3800BA023F08031C3F0FBB024008031C400FC7
:100E4800BC024108031C410FBD023D083C043B04A1
:100E58003A04031D302F312F5E2F4D08031D352F07
:100E6800362F5E2F0030BD000030BC000030BB00C4
:100E78000030BA00D62F0130C2000310BA0DBB0DE6
:100E8800BC0DBD0DC20B412FCD1F4B2F4C2F4D2F2D
:100E98003A144D1C502F512F552F03144D0DCD00D2
:100EA800572F0310CD0D4C0803195B2F5C2F5E2FB5
:100EB8000130CC02BC1F612F622F3F2FCB01CD1F09
:100EC800662F672F752F4D087F3903196C2F6D2FEB
:100ED800702F0130CB00752F3A1C732F742F752F8C
:100EE8006D2F4B080319792F7A2FAC2F0130BA07D1
:100EF800003003180130BB07003003180130BC076D
:100F0800003003180130BD073D1C8B2F8C2FAC2FF0
:100F18003A08C2003B08C3003C08C4003D08C500AD
:100F28000130C600450DC50CC40CC30CC20CC60B61
:100F3800962F4508BD004408BC004308BB00420882
:100F4800BA004C0A0319A92FAA2FAC2F0130CC07DD
:100F58004C0A0319B02FB12FB62F4C08031DB52F1B
:100F6800B62FC42F0030BD000030BC000030BB00DD
:100F78000030BA004C08031DC22FC32FC42FCA016A
:100F88004C1CC72FC82FCA2FBC17CC2F7F30BC05CD
:100F98004C08C2000310420CBD00CA1FD42FD52F25
:100FA800D62FBD1708000A128A15AC260A128A1114
:100FB800E7000A128A15AD260A128A11E8000A12F9
:100FC8008A15AE260A128A11E9000A128A15AF2676
:100FD8000A128A11EA000A128A15B0260A128A1120
:100FE800EB00E001E101E201E301E401E501E601D2
:080FF80083010A128A112E2A5E
:101D580031343234333434340034831603130711E6
:101D6800F93092000C308312031397000730920069
:101D780008008312031386140D30F100FB30F000C5
:101D8800F00BC42EF10BC42EC92E83120313861038
:101D980008007008F500D72E7508840071088313B1
:101DA80080000130F5070130F3020030031CF40312
:101DB800F402730A031DE42E740A031DE42EE52EB3
:101DC800D02E0800F52E750884000A128A11032007
:101DD8000A128A150A128A157F270A128A150130F3
:101DE800F507750884000A128A1103200A128A1559
:101DF800003A031D002F012FE72E08008230F6005D
:101E0800DD30F500F50B062FF60B062F0B2F0230F1
:101E18000A128A1552270A128A1528300A128A15B8
:101E280052270A128A150C300A128A1552270A12EA
:101E38008A1506300A128A1552270A128A150130A5
:101E48000A128A1552270A128A1508002F2F013004
:101E5800F0070130F1077108840083130008F200CD
:101E68007008840000087206031D3B2F3C2F432F87
:101E7800700884000008031D422F432F2B2F710880
:101E880084000008F200700884000008F30072085B
:101E98007302F000F101031CF1030800F40083123F
:101EA800031306100F3086057408F03986040A12E9
:101EB8008A15BD260A128A150F3083120313860568
:101EC8007408F20003300310F20DFF3E031D672F64
:101ED8000310720DF03986040A128A15BD260A12FB
:101EE8008A150D30F300FB30F200F20B792FF30B5B
:101EF800792F7E2F0800F4008312031306140F3085
:101F080086057408F03986040A128A15BD260A1255
:101F18008A150F308312031386057408F200033004
:101F28000310F20DFF3E031D942F0310720DF039BC
:101F380086040A128A15BD260A128A150D30F30086
:101F4800FB30F200F20BA62FF30BA62FAB2F0800E5
:101F5800831203135808F0005908F100F201F30145
:101F680000300A128A11B2200A128A1573088312E5
:101F78000313A7007208A6007108A5007008A40042
:101F88004130A3009030A2000030A1000030A00032
:101F98000A128A11BD230A128A1583120313230811
:101FA800C1002208C0002108BF002008BE0041303F
:101FB800BD004030BC000030BB000030BA000A123F
:101FC8008A1187250A128A15831203133D08D10046
:101FD8003C08D0003B08CF003A08CE000A128A110C
:101FE8003C200A128A15831203134F08DB004E089F
:081FF800DA005A089500080008
:02400E00723FFF
:00000001FF
